:1000000037C051C0C3C14FC04EC04DC04CC04BC023
:100010004AC049C048C047C046C045C044C00902A4
:100020001200010100801909040000000000000016
:1000300012011001FF000008C016DC0504010102D6
:1000400000010E0355005300420061007300700070
:100050001C037700770077002E00660069007300AC
:10006000630068006C002E0064006500040309044E
:1000700011241FBECFE5D2E0DEBFCDBF10E0A0E669
:10008000B0E0EEEEF1E102C005900D92A236B107AC
:10009000D9F720E0A2E6B0E001C01D92AC3AB20769
:1000A000E1F773D8A2C8ACCFCF93DF9360918900FA
:1000B000635067FD13C080918600CCE0D0E0C81B80
:1000C000D109C357DF4F809185008D3209F46EC08E
:1000D0008091620087FDB2C010928900809160001B
:1000E00084FF40C0609161006F3F09F43BC06930FC
:1000F00008F486C06850609361008091790098E8A8
:1001000089278093790068E08091620087FD1DC097
:10011000409187005091880086FF87C0FA01862FA2
:10012000AAE7B0E094919D9331968150D9F7262F9C
:10013000215030E02F5F3F4F240F351F3093880050
:1001400020938700C62FCC5F66C08AE790E09DD6DB
:10015000682F893008F4B8C08FEF80936100CEE13A
:10016000C093600094E186B3887181F49150D9F70F
:1001700010928A001092840080916300813019F0FF
:10018000C1E0C0936300DF91CF910895C1E0911168
:10019000C0E080916300C817B1F3CC2329F0C0936D
:1001A0006300DF91CF910895A7D7F9CF683009F0A8
:1001B00093CF83EC809379008AE58093600010925E
:1001C00062008881807609F043C09A811092820093
:1001D0008981811147C01092830022E830E082E0DB
:1001E00030938800209387008F3FA9F19F81911160
:1001F00004C09E81981708F4892F809361006CCF0A
:10020000109261008091790098E8892780937900A5
:1002100061117ACFC4E08AE790E0A1D0CC3009F434
:100220009FCF8FEF809361009BCFDA01862FEAE7A3
:10023000F0E09D9191938150E1F779CFCE0192D674
:100240008F3FF1F0882309F447CF1092610044CF2B
:10025000CE017BD4C9CF988197FD16C090E89093CA
:100260006200CBCF853091F0863001F18830D1F03B
:10027000893091F022E830E08A3021F180E0B0CF7F
:100280008EE18093600028CF8E81E8CF90938A0022
:1002900022E830E080E0A4CF90938C0022E830E0A8
:1002A00080E09ECF2CE830E081E09ACF8B818130D6
:1002B00001F18230B1F0833051F080E090E490930E
:1002C000620092CF81E08CCFC82FCC5FA4CF911178
:1002D00018C08CE690E0909388008093870084E0BB
:1002E000EDCF8EE190E0909388008093870082E1CB
:1002F000E5CF80E390E0909388008093870082E1CF
:10030000DDCF913051F09230C1F682E490E09093CD
:100310008800809387008EE0D1CF80E590E09093B5
:100320008800809387008CE1C9CFAC9A8BB780623C
:100330008BBF0895A82FB92F80E090E041E050EAEC
:10034000609530E009C02D9182279795879510F030
:1003500084279527305EC8F36F5FA8F30895EADF1E
:100360008D939D930895A6E088279927AA9569F013
:100370000197E1F3B399FCCFB39BFECF81E09927BE
:10038000A6B3019611F0A871D9F70895CF93CFB70E
:10039000CF93C395B39BE9F7B39B0BC0B39B09C045
:1003A000B39B07C0B39B05C0B39B03C0B39B01C005
:1003B000D3C00F92DF93C0918600DD27C357DF4F74
:1003C000012EB39B03C0DF910F90E6CF2F930F93C5
:1003D0001F934F932FEF4F6F06B303FB20F95F93EB
:1003E0003F9350E03BE065C016B30126502953FD12
:1003F000C89556B3012703FB25F92F7306B3B1F057
:100400005027102713FB26F906B22230F0F000C067
:1004100016B3012703FB27F90126502906B2243021
:10042000E8F54F77206816B30000F6CF50274F7DD0
:10043000206206B2102F000000C006B3002650292B
:10044000102713FB26F906B2E2CF4F7B06B32064D8
:1004500000C0DACF01265029187106B269F14E7F2B
:100460002160012F16B328C0002650294D7F06B207
:100470002260102F29C0012650294B7F06B224602C
:10048000012F2DC016B301265029477F2860000098
:1004900006B22EC04F7E06B3206130C0422706B39D
:1004A000499300265029102706B24FEF13FB20F97D
:1004B000297F16B379F2187159F10126502906B235
:1004C000012703FB21F9237F06B371F2002650298F
:1004D0003150D0F006B2102713FB22F9277E16B355
:1004E00051F201265029012703FB06B223F92F7C84
:1004F00049F2000006B3102713FB24F90026502907
:1005000006B22F7939F270CF10E21ABF002717C058
:100510003B503195C31BD04010E21ABF0881033C09
:10052000F9F00B34E9F0209184001981110F1213B6
:10053000EDCF093651F10D3211F0013E39F700933C
:100540008B003F915F914F911F910F912F91DF9100
:100550000F90CAB7C5FD1DCFCF91CFBFCF911895D2
:1005600020918B00222369F310918900112321F53A
:10057000343022F130938900209385001091860059
:100580003BE0311B3093860019C000918900013097
:100590009CF40AE53091600034FD11C000936000C6
:1005A000C9E7D0E010C0052710E000C021C0052732
:1005B00010E0C89508BB14C03AE501C032ED032E27
:1005C000C0E0D0E032E017B31861C39A08B317BB9C
:1005D00058E120E84FEF20FF052708BB2795179526
:1005E0001C3F28F700004552B0F720FF052727954C
:1005F00008BB17951C3FB8F629913A9561F7077E1D
:1006000010918A00110F08BBC250D04011F0109316
:10061000840010E21ABF086017B3177E402F477E90
:1006200054E05A95F1F708BB17BB48BB8ACF582F47
:1006300048E080E02091A80057FD14C0C098550FF5
:10064000880FB1998F5FC29A32B792B7931B9217F6
:10065000E0F3C29832B792B7931B9217E0F3415080
:1006600059F70895C09AEBCF21E196958795779534
:1006700067952A95D1F72091A7002617D9F06093A6
:10068000A700E091A400F091A5008DE40995E09108
:10069000A400F091A50080E00995E091A400F091FC
:1006A000A5008091A7000995E091A400F091A50014
:1006B00080E009940895882391F027E133E0309396
:1006C000A5002093A4008430E9F098F08630B9F0BA
:1006D000E8F0883051F481E08093A800089587E124
:1006E00093E09093A5008093A40083E08093A800FA
:1006F0000895823099F070F48130B9F780EC8093DE
:10070000A800089588E18093A80008958CE0809364
:10071000A800089580E38093A800089580E6809360
:10072000A800089522B79091A80082B7821B89176C
:10073000E0F3089587B3856287BBC598C29822B756
:100740009091A80082B7821B8917E0F3C59A22B75F
:1007500082B7821B8917E0F3C5981092A70008950D
:1007600087B38A7D87BB88B38A7D88BB0895CF9382
:10077000DF93C0E2E091A400F091A5008CEA099516
:10078000E091A400F091A50083E50995E091A40013
:10079000F091A50080E00995D82FE091A400F09198
:1007A000A50080E00995D335C9F022B79091A80043
:1007B00082B7821B8917E0F3C59A22B782B7821BE2
:1007C0008917E0F3C59822B782B7821B8917E0F337
:1007D000C15081F681E0DF91CF91089580E0DF91F3
:1007E000CF910895CF92DF92EF92FF926B017C013F
:1007F0003BDFD701C60181709927AA27BB27880F45
:10080000880F880FE091A400F091A50080620995FF
:10081000D701C60139E0B695A795979587953A9582
:10082000D1F7E091A400F091A5000995D701C60188
:10083000B695A79597958795E091A400F091A500AE
:100840000995E091A400F091A50080E0FF90EF9061
:10085000DF90CF900994CF92DF92EF92FF920F93A7
:100860001F93CF93DF936B017C01C42FD22FFCDE4B
:10087000970186010170112722273327802F880FC7
:10088000880F880FE091A400F091A500806409957D
:10089000D701C60159E0B695A795979587955A95C2
:1008A000D1F7E091A400F091A5000995D701C60108
:1008B000B695A79597958795E091A400F091A5002E
:1008C0000995E091A400F091A5008C2F0995DD23F6
:1008D000A9F0CF3789F0D2B7CEE1C701B60182DFE8
:1008E0008F3761F482B78D1B833510F0D2B7C150BA
:1008F000C111F3CF81E003C08FE0B2D080E0DF917F
:10090000CF911F910F91FF90EF90DF90CF900895BE
:10091000CF92DF92EF92FF920F931F93CF93DF93CB
:100920001F92CDB7DEB76B017C0149839DDEE0915C
:10093000A400F091A5008CE40995D701C60179E0E7
:10094000B695A795979587957A95D1F7E091A400EC
:10095000F091A5000995D701C601B695A795979581
:100960008795E091A400F091A5000995E091A4007D
:10097000F091A50080E0099549814F3FE1F002B771
:100980001EE1C701B6012EDF8F3F99F482B7801BAD
:10099000833510F002B711501111F3CF81E00F90A1
:1009A000DF91CF911F910F91FF90EF90DF90CF904B
:1009B000089580E0F4CF8FE053D080E0F0CF1F9314
:1009C000CF93DF931F92CDB7DEB7182FE091A4002D
:1009D000F091A50080EA99830995E091A400F09137
:1009E000A5009981892F0995E091A400F091A500B7
:1009F000812F0995E091A400F091A50080E00F906F
:100A0000DF91CF911F9109941F93CF93DF9300D073
:100A1000CDB7DEB7182FE091A400F091A50080ECCF
:100A20006A8399830995E091A400F091A5009981CA
:100A3000892F0995E091A400F091A500812F0995D7
:100A4000E091A400F091A5006A81862F09958EE1BE
:100A500007D080E00F900F90DF91CF911F91089504
:100A6000882349F030E022B792B7921B9235E0F329
:100A70003F5F3813F8CF0895BA9AB898C09A50E2F9
:100A800017D05A95E9F70895AC0188E605D0842F70
:100A900003D089E601D0852F0FD028E030E0382739
:100AA00080FB869506D02A95D1F730FB02D000D086
:100AB0006894B898C09A16F0C098B89AE091AA00C5
:100AC000F091AB003197F0F7C29AE6B3E0FBE0910A
:100AD000AA00F091AB003197F0F7C298089520EC8E
:100AE000E7DF46F42A95E1F780E02AE1E5DF2A9581
:100AF000E9F7DECF28E030E0DBDF869587F938279D
:100B00002A95D1F7D5DF27F9322772F3D1DFD0CF7D
:100B1000DB01742FB9DF84E2BFDFE1DF8D937A95CB
:100B2000D1F70895DB01742FAFDF83EFB5DF8DE1DF
:100B3000B3DF84E6B1DF8D91AFDF82E7ADDFCFDFDA
:100B40008078D9F77A9589F70895CF93DF93EC01F0
:100B50008981813009F49DC0823009F4A2C08330BC
:100B600009F454C0843049F1873009F471C08530EC
:100B700009F40BC1863009F497C0883009F4DEC04F
:100B8000893009F4CAC08A3009F421C18B3009F4D4
:100B90004DC18C3009F45CC18D3009F46DC18E30CB
:100BA00009F46FC18F3009F4F5C0803109F416C122
:100BB0008F3709F430C180E020C080916500811139
:100BC00010C05B8140E08A81482B662757FD609505
:100BD000762F40936E0050936F0060937000709377
:100BE00071009F8180E02E81822B9093730080930F
:100BF000720082E0809374008FEF26E630E030933D
:100C0000880020938700DF91CF910895E091A400A0
:100C1000F091A5008A81099580936600E091A40077
:100C2000F091A5008B81099580936700E091A40065
:100C3000F091A5008C81099580936800E091A40053
:100C4000F091A5008D8109958093690084E0D5CF4E
:100C500080916500811110C05B8140E08A81482B42
:100C6000662757FD6095762F40936E0050936F0076
:100C700060937000709371009F8180E02E81822BC1
:100C8000909373008093720083E0809374008FEFE1
:100C9000B4CF809164000FDD109265004BDD80E0E1
:100CA000ACCF5EDD80E0A9CF80916500811110C0DE
:100CB0009B8180E02A81822BAA2797FDA095BA2FDD
:100CC00080936E0090936F00A0937000B0937100BA
:100CD0003C812D81822F8F7080937700822F807FBF
:100CE00090E082959295907F9827807F9827830F38
:100CF000911D909376008093750020FD809378007D
:100D00009F8180E02E81822B9093730080937200EC
:100D100081E0809374008FEF70CF81E08093650055
:100D20008A819B81AC81BD8180936E0090936F001E
:100D3000A0937000B093710080E05FCF8091650058
:100D4000811110C09B8180E02A81822BAA2797FD08
:100D5000A095BA2F80936E0090936F00A0937000BF
:100D6000B093710010927600109275001092770087
:100D70009F8180E02E81822B90937300809372007C
:100D800084E0809374008FEF38CFF1DC80936600AD
:100D900081E033CF9B8180E02A81822BAA2797FDB7
:100DA000A095BA2F80936E0090936F00A09370006F
:100DB000B09371009F8180E02E81822B909373000D
:100DC0008093720085E0809374008FEF16CF8A8144
:100DD000809364001092660081E00FCF9B8180E0D9
:100DE0002A81822BAA2797FDA095BA2F80936E00A7
:100DF00090936F00A0937000B09371009F8180E08A
:100E00002E81822B909373008093720086E08093F2
:100E100074008FEFF2CE81E080936600109267003D
:100E2000109268001092690084E0E7CE9B8180E018
:100E30002A81822B9093AB008093AA00C59ABD9A19
:100E400083E00EDEC59880E10BDE16DE80E0D5CEB5
:100E500080EC22DE80E020DE8AE002DEC59A85E0BA
:100E6000FFDDC59885E0FCDD87B38A7D87BB88B34D
:100E70008A7D88BB80E0C1CE32DE8093660081E04F
:100E8000BCCE8A8109DE80E0B8CE0F931F93CF934A
:100E9000DF93582F792F062F20917400322F325074
:100EA000323050F0253009F441C00FEF802FDF9130
:100EB000CF911F910F910895662381F180916E006B
:100EC00090916F00A0917000B0917100C52FD72F45
:100ED00010E01BC074DD888380916E0090916F00DC
:100EE000A0917000B09171000196A11DB11D809379
:100EF0006E0090936F00A0937000B09371001F5F1D
:100F00002196101749F020917400223019F7BC0186
:100F1000CD0168DC8883E0CF083040F61092740081
:100F2000802FDF91CF911F910F910895462F682F49
:100F300080916E0090916F00EBDD80916E0090913A
:100F40006F00A0917000B0917100800F911DA11DE4
:100F5000B11D80936E0090936F00A0937000B093CA
:100F60007100A4CFFF920F931F93CF93DF93382F7D
:100F7000792F162F20917400213071F0243061F008
:100F8000263009F48BC0FF24FA948F2DDF91CF9186
:100F90001F910F91FF900895112309F4ABC0809128
:100FA0006E0090916F00A0917000B0917100C32FFE
:100FB000D72F00E0F12C4EC02091750030917600C3
:100FC000232B09F050C021E04881BC01CD0143DC56
:100FD00020917200309173002150310930937300D9
:100FE00020937200232BE1F410927400809177001B
:100FF00081FF36C02091780030E08091750090919B
:1010000076002817390761F160916E0070916F00CA
:10101000809170009091710048817ADCFF24F394F4
:1010200080916E0090916F00A0917000B09171005E
:101030000196A11DB11D80936E0090936F00A09347
:101040007000B09371000F5F2196011709F49DCFD6
:1010500020917400213009F4AFCF6881D5DCB8CF7E
:10106000FF24F394DDCF20E04881BC01CD01F3DB08
:10107000809178008150809378008111A9CF609190
:101080006E0070916F0080917000909171004881A6
:101090003FDC80917500809378009ACF462F682FAF
:1010A00080916E0090916F003DDD80916E00909177
:1010B0006F00A0917000B0917100810F911DA11D72
:1010C000B11D80936E0090936F00A0937000B09359
:1010D00071008091720090917300811B910990932F
:1010E000730080937200892B29F410927400FF24FE
:1010F000F3944BCFF12C49CFDF92EF92FF920F93F5
:101100001F93CF93DF9308E010E0E12C50E8F52E19
:10111000DF2CDE0CD1BE27D9EC01C43389E0D8071F
:101120000CF4ED2CF6940150110991F78E2D81509D
:1011300081BF81B70E2D10E00F5F1F4F90E00817A1
:10114000190774F416C08C179D0714F4E1B6EC016E
:1011500081B78F5F81BF81B790E0081719074CF006
:1011600002D98453994097FFEECF919581959109CB
:10117000EACFE1BE61B780E090E0DF91CF911F91AF
:101180000F91FF90EF90DF9022C018BA80E090E0BE
:1011900016D08F3F09F081BFBB9A84E1E2EBF1EFFB
:1011A0003197F1F700C000008150C1F7BB9817BA22
:1011B00083E083BFBAD8789477D776D7FDCFE1990B
:1011C000FECF9FBB8EBBE09A99278DB30895262F43
:1011D000E199FECF1CBA9FBB8EBB2DBB0FB6F89416
:0E11E000E29AE19A0FBE01960895F894FFCFAF
:0211EE005AFFA6
:00000001FF
